:020000040800F2
:1000000000000820B9050008890200088B020008DA
:100010008D0200088F020008910200080000000015
:100020000000000000000000000000009302000833
:1000300095020008000000009702000899020008DD
:100040000906000809060008090600080906000854
:100050000906000809060008090600080906000844
:100060000906000809060008090600080906000834
:100070000906000809060008090600080906000824
:100080000906000809060008090600080906000814
:100090000906000809060008090600080906000804
:1000A00009060008090600080906000809060008F4
:1000B00009060008090600080906000809060008E4
:1000C00009060008090600080906000809060008D4
:1000D00009060008090600080906000809060008C4
:1000E00009060008090600080906000809060008B4
:1000F00009060008090600080906000809060008A4
:100100000906000809060008090600080906000893
:100110000906000809060008090600080906000883
:100120000906000809060008090600080906000873
:100130000906000809060008090600080906000863
:100140000906000809060008090600080906000853
:100150000906000809060008090600080906000843
:100160000906000809060008090600080906000833
:10017000090600080906000809060008000000003A
:100180000906000809060008090600080906000813
:100190000906000809060008090600080906000803
:1001A00009060008090600080906000809060008F3
:1001B00009060008090600080906000809060008E3
:1001C00009060008090600080000000009060008EA
:1001D00009060008090600080906000809060008C3
:1001E00009060008090600080906000809060008B3
:0801F0000906000809060008D9
:1001F80010B5054C237833B9044B13B10448AFF359
:1002080000800123237010BD0400002000000000BE
:100218005406000808B5034B1BB103490348AFF364
:10022800008008BD000000000800002054060008F7
:1002380010B40F4AD2F8883043F47003C2F88830FB
:100248000C4B196841F001011960002098601C6886
:1002580009492140196009495960196821F4802128
:100268001960D8604FF0006393605DF8044B7047E5
:1002780000ED00E000380240FFFFF6FE10300024D9
:100288007047FEE7FEE7FEE7FEE7704770477047F6
:100298007047F0B40A6892FAA2F2B2FA82F218E051
:1002A8000E69C46893FAA3F5B5FA85F56D000327BE
:1002B80007FA05F524EA050493FAA3F5B5FA85F5D6
:1002C8006D0006FA05F52C43C4604C68022C36D044
:1002D80001320B6833FA02F464D0012494402340BD
:1002E800F6D04E68046893FAA3F5B5FA85F56D0063
:1002F800032707FA05F524EA050493FAA3F5B5FAE6
:1003080085F56D0006FA05F52C4304604C68013C40
:10031800012CC5D88E68846893FAA3F5B5FA85F5DB
:100328006D0007FA05F524EA050493FAA3F5B5FA72
:1003380085F56D0006FA05F52C438460B0E793FA5D
:10034800A3F4B4FA84F4072C15D84D69046A93FA17
:10035800A3F6B6FA86F6B6000F2707FA06F624EAD9
:10036800060493FAA3F3B3FA83F39B0005FA03F3A5
:1003780023430362ACE74C69456A1B0A93FAA3F668
:10038800B6FA86F6B6000F2707FA06F625EA060536
:1003980093FAA3F3B3FA83F39B0004FA03F32B4312
:1003A800436295E74A68013A012A02D90120F0BC64
:1003B8007047C968426822EA030201FB03F313434A
:1003C8004360F3E7054BA3FB003080090138044B79
:1003D800586000229A6005221A607047D34D621057
:1003E80010E000E0014B1860704700BF00000020DB
:1003F8000D4BD96821F4E0610904090C0B4A0A4342
:10040800DA60DA6800221A76D9685A76D9689A7654
:10041800D968DA77D96883F82020D96883F8222048
:10042800D96883F82320704700ED00E00003FA053F
:1004380000B589B00D4B1A6B42F002021A631B6BB0
:1004480003F002030193019B09480A4B836144F2BC
:1004580081030293012303930023049305930693D6
:1004680002A9FFF716FF09B05DF804FB0038024047
:100478000004024000008140411E002811DD82B0C6
:1004880009E000BF019B5A1E0192002BF9DC0846C7
:100498000139002803DD4FF4FA730193F2E702B043
:1004A80070477047FEE7000010B5284B1A6822F025
:1004B8000F021A601B6813F00F0F43D1244A136808
:1004C80023F4404343F480431360136823F48033D8
:1004D800136002F5E432136823F0F80343F0800355
:1004E8001360136843F0010313601A4B1B6813F081
:1004F800020FFAD0174B9A6822F0F0029A609A68B5
:1005080022F4E0529A609A6822F460429A609A68EB
:1005180022F003029A600F4B9B6813F00C0FFAD17C
:100528000D4C2046FFF74EFF0C4A136843F00403B6
:1005380013602046FFF756FF094BDA68002283F85C
:10054800232010BD80210748FFF7ACFF003C024084
:1005580000700040003802400024F40010E000E081
:1005680000ED00E06C06000808B5FFF741FFFFF753
:100578009BFFFFF75DFF0D4C0123A3618023A3615F
:100588004FF48043A36141F2B440FFF775FF4FF485
:100598008033A3614FF40003A3614FF08043A3614C
:1005A80041F2B440FFF768FFE5E700BF00040240EE
:1005B800DFF834D0002103E00C4B5B584350043182
:1005C8000B480C4B42189A42F6D30B4A02E0002320
:1005D80042F8043B094B9A42F9D3FFF729FE00F091
:1005E80011F8FFF7C1FF70470000082080060008D7
:1005F800000000200400002004000020200000204B
:10060800FEE7000070B50D4E0D4CA41BA41000258C
:10061800A54209D10B4E0C4C00F018F8A41BA410ED
:100628000025A54205D170BD56F8253098470135FB
:10063800EEE756F8253098470135F2E778060008C6
:1006480078060008780600087C060008F8B500BFA0
:10065800F8BC08BC9E467047F8B500BFF8BC08BC9B
:040668009E467047F3
:0C066C005372632F6D61696E2E630000F5
:040678001D02000857
:04067C00F901000878
:040680000024F4005E
:04000005080005B931
:00000001FF
